S00F00006E5F696E6469632E7372656341
S113000014C02EC02DC02CC02BC02AC029C028C0AB
S113001027C026C025C07DC023C022C021C020C067
S11300201FC01EC01DC036C01BC011241FBECFE59B
S1130030D2E0DEBFCDBF10E0A0E6B0E0EEE3F1E039
S113004002C005900D92A237B107D9F720E0A2E7CC
S1130050B0E001C01D92A437B207E1F76CD06DC0C7
S1130060CFCF8FEF84BB8AB3806C8ABB15BA8BB3B6
S1130070806C8BBB82E089BF8DE083BF80E88CBF3E
S11300801BB888E98AB986E880BD10BC87E689B9BF
S1130090789408951F920F920FB60F9211248F93A4
S11300A09F93EF93FF93809172008F5F8E3318F4C8
S11300B08093720007C010927200809170008F5F6D
S11300C0809370009091730081E08927809373007E
S11300D0882359F0DE98DF9AE0917000EF70F0E029
S11300E0E05AFF4F808185BB0BC0DF98DE9AE09118
S11300F07000E295EF70F0E0E05AFF4F808185BB1D
S1130100FF91EF919F918F910F900FBE0F901F90D1
S113011018951F920F920FB60F9211248F938CB1E2
S1130120809370005D9BFECF8CB98F910F900FBEB2
S11101300F901F90189595DFFFCFF894FFCF26
S113013EC0F9A4B0999282F880908883C6A1868E65
S105014E740037
S9030000FC
