:100000000C9434000C9451000C9451000C94510049
:100010000C9451000C9451000C9451000C9451001C
:100020000C9451000C9451000C9451000C9451000C
:100030000C9451000C9451000C945F000C945100EE
:100040000C9451000C9451000C9451000C945100EC
:100050000C9451000C9451000C9451000C945100DC
:100060000C9451000C94510011241FBECFEFD8E026
:10007000DEBFCDBF11E0A0E0B1E0EEE0F1E002C0F4
:1000800005900D92A230B107D9F721E0A2E0B1E0CE
:1000900001C01D92A330B207E1F70E9482000C94C8
:1000A00085000C940000209A8FEF87BD88BD82E008
:1000B00080936E0084BD85E085BD789408951F927D
:1000C0000F920FB60F9211248F939F93809102018C
:1000D0008F5F84311CF4809302010DC010920201E5
:1000E0008091000191E0892780930001882311F01D
:1000F000289A01C028989F918F910F900FBE0F9062
:0E0100001F9018950E945300FFCFF894FFCF78
:02010E000100EE
:00000001FF
