S0110000696E667261726564302E7372656398
S113000014C01BC01AC019C018C017C016C015C030
S113001014C013C012C011C010C00FC00EC00DC058
S11300200CC00BC00AC01BC008C011241FBECFE502
S1130030D2E0DEBFCDBF22D028C0E2CF87B38A6032
S113004087BB87B38B7E87BB88B3857F88BB82E001
S113005089BF8AE083BF81E28CBF789408951F92A0
S11300600F920FB60F921124C39B02C0C39801C014
S1130070C39A0F900FBE0F901F901895DFDFB499AD
S111008002C0C19AFCCFC198FACFF894FFCF0A
S9030000FC
