S01200006C617365727472616E732E73726563D3
S113000014C023C022C021C020C01FC01EC01DC0F8
S11300101CC01BC01AC029C018C017C016C015C008
S113002014C013C012C011C010C011241FBECFE5EC
S1130030D2E0DEBFCDBF20E0A0E6B0E001C01D925B
S1130040A137B207E1F73BD057C0DACFB99ABA98D3
S1130050C19A1BB888E98AB986E880BD10BC87E6D6
S113006089B910926000789408951F920F920FB688
S11300700F9211248F939F93EF93FF9380916000CD
S11300809CB1E82FF0E0EF59FF4F90838F5F8F70A2
S113009080936000FF91EF919F918F910F900FBE1D
S11300A00F901F901895E1E6F0E081E790E05D9BEA
S11300B0FECF21912CB9E817F907C9F70895C6DFD7
S11300C0D0E090E011E001C09C2F86B3C82FC4702B
S11300D082FF0CC091110AC0812F8D1BD82FE3DF42
S11300E08FE39CE90197F1F700C00000DD2311F0D4
S10F00F0C19AEACFC198E8CFF894FFCF82
S9030000FC
