:1000000014C023C022C021C020C01FC01EC01DC0FC
:100010001CC01BC01AC026C018C017C016C015C00F
:1000200014C013C012C011C010C011241FBECFE5F0
:10003000D2E0DEBFCDBF20E0A0E6B0E001C01D925F
:10004000A236B207E1F721D030C0DACFB99A18BA98
:100050001BB888E98AB986E880BD10BC87E689B9F3
:10006000789408951F920F920FB60F9211248F93D8
:100070008CB18093610088BB81E0809360008F9198
:100080000F900FBE0F901F901895E0DF80916000D9
:10009000813009F0FFCF5D9BFECF809161008CB96C
:0E00A0001092610010926000F1CFF894FFCF33
:00000001FF
