:1000000014C023C022C021C020C01FC01EC01DC0FC
:100010001CC01BC01AC026C018C017C016C015C00F
:1000200014C013C012C011C010C011241FBECFE5F0
:10003000D2E0DEBFCDBF20E0A0E6B0E001C01D925F
:10004000A136B207E1F725D026C0DACFB99A18BA9F
:100050001BB888E98AB986E880BD10BC87E689B9F3
:10006000789408951F920F920FB60F9211248F93D8
:100070008CB18093600088BB5D9BFECF8091600057
:100080008CB9109260008F910F900FBE0F901F904F
:0A0090001895DCDFFFCFF894FFCFD6
:00000001FF
