S00F00006E5F696E6469632E7372656341
S113000014C02EC02DC02CC02BC02AC029C028C0AB
S113001027C026C025C086C023C022C021C020C05E
S11300201FC01EC01DC03FC01BC011241FBECFE592
S1130030D2E0DEBFCDBF10E0A0E6B0E0E2E1F2E046
S113004002C005900D92A237B107D9F720E0A2E7CC
S1130050B0E001C01D92AC37B207E1F777D0D7C04A
S1130060CFCFB99A8FEF88BB84BB8AB3806C8ABB2D
S113007015BA8BB3806C8BBB82E089BF8DE083BFE4
S113008080E88CBF1BB888E98AB986E880BD10BCBB
S113009087E689B980E687B980B78F7180BF87EE1C
S11300A086B9789408951F920F920FB60F92112477
S11300B08F939F93EF93FF9380917A008F5F8E339A
S11300C018F480937A0007C010927A00809170002F
S11300D08F5F8093700090917B0081E089278093EB
S11300E07B00882359F0DE98DF9AE0917000EF706E
S11300F0F0E0E05AFF4F808185BB0BC0DF98DE9AA9
S1130100E0917000E295EF70F0E0E05AFF4F8081DB
S113011085BBFF91EF919F918F910F900FBE0F9030
S11301201F9018951F920F920FB60F9211248F9360
S11301308CB1813029F45D9BFECF809170008CB925
S11301408F910F900FBE0F901F9018958ADF349BEC
S1130150FECF84B145B150E060E070E0440F551F1C
S1130160661F771F440F551F661F771F829586955C
S113017086958370480F511D611D711D8091760015
S113018090917700A0917800B0917900480F591FA1
S11301906A1F7B1F4093760050937700609378002A
S11301A0709379008091720090917300A091740013
S11301B0B09175000196A11DB11D809372009093BA
S11301C07300A0937400B093750081309140A10531
S11301D0B1050CF4BCCF032E3AE07595679557959D
S11301E047953A95D1F7302D4093700010927600E0
S11301F01092770010927800109279001092720099
S1130200109273001092740010927500A0CFF894AD
S1050210FFCF1A
S1130212C0F9A4B0999282F880908883C6A1868E90
S1050222FF00D7
S9030000FC
