:1000000014C023C022C021C020C01FC01EC01DC0FC
:100010001CC01BC01AC019C018C017C016C015C01C
:1000200014C013C012C042C010C011241FBECFE5BF
:10003000D2E0DEBFCDBF20E0A0E6B0E001C01D925F
:10004000A03BB207E1F70FD112C1DACF8FEF8CBF1F
:100050008DE083BF82E089BF10926A001092690030
:10006000109268007894089513BE89B78D7F89BF78
:10007000F894089587B38A6087BBBA9818BA1BB8FA
:1000800088E98AB986E880BD10BC87E689B91092F4
:100090006D0010926B0010926C008CE38093AF00A7
:1000A00088E780936E008FEF8CBF08951F920F92A8
:1000B0000FB60F9211242F933F934F935F936F933B
:1000C0007F938F939F93AF93BF93EF93FF93809111
:1000D0006A008F5F80936A0090916E0089170CF41C
:1000E00048C010926A008091670091E08927809350
:1000F0006700882311F0C19A01C0C198209168005F
:10010000222379F1293069F12A3069F12B30B1F4D9
:10011000C39810926800809169008F5F8093690096
:1001200090916600891704F19FDF10926B00109286
:10013000660010926D001092610016C0E091690097
:10014000FF27E7FDF095E159FF4F8081992787FD53
:100150009095215002C0959587952A95E2F780FFEA
:1001600002C0C39A01C0C398809168008F5F8093DA
:100170006800FF91EF91BF91AF919F918F917F9117
:100180006F915F914F913F912F910F900FBE0F9004
:100190001F9018958091620090916300A091640077
:1001A000B09165008D3D25E09207A105B10544F5AC
:1001B00020916100211124C05F9B16C080916D00C9
:1001C0009CB1E82FFF27E7FDF095E159FF4F9083A1
:1001D0008F5F80936D001092620010926300109206
:1001E00064001092650008950196A11DB11D8093D1
:1001F000620090936300A0936400B093650008953B
:1002000010926200109263001092640010926500D8
:1002100080916D00882341F08093660010926D00FC
:1002200081E08093610012CF08958091610088235E
:10023000C9F05D9B17C0E091600080916600E817EF
:100240006CF4FF27E7FDF095E159FF4F80818CB9F1
:10025000809160008F5F809360000895109261002C
:1002600010926000089506DF95DFDFDFFDCFF89480
:02027000FFCFBE
:00000001FF
