:100000000C9472000C9434010C9493000C949300A3
:100010000C9493000C9493000C9493000C94930014
:100020000C9493000C9493000C9493000C94930004
:100030000C9493000C9493000C9493000C949300F4
:100040000C9493000C9493000C9493000C949300E4
:100050000C9493000C94A5000C9493000C949300C2
:100060000C9493000C9493000C9493000C949300C4
:100070000C9493000C9493000C9493000C949300B4
:100080000C9493000C9493000C9493000C949300A4
:100090000C9493000C9493000C9493000C94930094
:1000A0000C9493000C9493000C9493000C94930084
:1000B0000C9493000C9493000C9493000C94930074
:1000C0000C9493000C9493000C9493000C94930064
:1000D0000C9493000C9493000C9493000C94930054
:1000E0000C94930011241FBECFEFD1E2DEBFCDBF31
:1000F00000E00CBF12E0A0E0B2E0E2EFF3E000E0CD
:100100000BBF02C007900D92A230B107D9F722E0D1
:10011000A2E0B2E001C01D92AF34B207E1F70E9445
:10012000C3010C94F7010C94000081E08DBB08958D
:100130001DBA0895EEE6F0E080818260808310921F
:100140000C02089510926E0008951F920F920FB640
:100150000F9211240BB60F922F938F939F93EF93CF
:10016000FF9380910C028F5F80930C0290910B02A1
:1001700091111BC090914E0289170CF469C08091B7
:10018000010291E0892780930102882319F08FEF03
:1001900088B901C018B810920C0280910B028F5FD1
:1001A00080930B02489B54C03FC020910D028217E0
:1001B0000CF44EC010920C029F5F90930B02809142
:1001C000010291E0892780930102882319F08FEFC3
:1001D00088B901C018B880910B028A3044F18A3086
:1001E00029F4489B0DC0109200020AC08B3041F4E4
:1001F000F89481E08DBB10926E0080930A0278948F
:1002000080910002882321F180910902E82FFF27C5
:10021000E7FDF095E25FFD4F9091080290838F5FBC
:1002200080930902109208021092000211C08230DD
:100230007CF048990DC02EEF280F81E090E001C0BE
:10024000880F2A95EAF790910802982B909308025C
:10025000FF91EF919F918F912F910F900BBE0F9077
:100260000FBE0F901F9018951F920F920FB60F920E
:1002700011240BB60F922F933F934F935F936F937D
:100280007F938F939F93AF93BF93EF93FF9348997F
:1002900018C08FEF88B91DBA81E0809300021092D8
:1002A0000C021092080210920A021092020210929E
:1002B0000302109204021092050210920B020E9497
:1002C0009A00FF91EF91BF91AF919F918F917F9194
:1002D0006F915F914F913F912F910F900BBE0F90B7
:1002E0000FBE0F901F90189581E08DBB8093690021
:1002F0003D9A18B88FEF87BD18BC82E084BD85E0B9
:1003000085BD10920C021092C00088E98093C10054
:1003100086E88093C2001092C50087E68093C400EF
:100320008CE380934E0288E780930D0210920602C0
:10033000109209027894089580910602882311F1A1
:100340008091C00085FF1EC0E091070280910902E4
:10035000E81774F4FF27E7FDF095E25FFD4F808119
:100360008093C600809107028F5F809307020895F3
:1003700010920602109207021092090210920802CF
:1003800010920B0208950E947401C1E080910A024C
:10039000882351F1CDBB8091020290910302A0917C
:1003A0000402B09105020196A11DB11D80930202C5
:1003B00090930302A0930402B0930502813092410E
:1003C000AA47B1058CF010920A0210920202109214
:1003D000030210920402109205021DBA10926E00E0
:1003E00010920702C09306020E949C01CFCFF8949E
:0203F000FFCF3D
:0203F200010107
:00000001FF
