S00E000074696D6572302E73726563C5
S113000014C02EC02DC02CC02BC02AC029C028C0AB
S113001027C026C025C024C023C022C021C020C0C0
S11300201FC01EC01DC02EC01BC011241FBECFE5A3
S1130030D2E0DEBFCDBF10E0A0E6B0E0EEEFF0E02E
S113004002C005900D92A236B107D9F720E0A2E6CE
S1130050B0E001C01D92A536B207E1F743D04DC010
S1130060CFCFB99AC198BA9882E089BF8DE083BF97
S11300708FEF8CBF789410926400109263001092FA
S1130080620008951F920F920FB60F9211242F93BE
S11300903F938F939F9380916300909164000196A6
S11300A090936400809363002091600030E0821795
S11300B093077CF09091620081E08927809362002D
S11300C01092640010926300882311F0C19A01C059
S11300D0C1989F918F913F912F910F900FBE0F90D8
S11300E01F901895BEDF96E08DE3B29B03C080930A
S11100F06000FBCF90936000F8CFF894FFCF30
S10500FE3D00BF
S9030000FC
