:1000000014C02EC02DC02CC02BC02AC029C028C0AF
:1000100027C026C025C024C023C022C021C020C0C4
:100020001FC01EC01DC02FC01BC011241FBECFE5A6
:10003000D2E0DEBFCDBF10E0A0E6B0E0EAE0F1E044
:1000400002C005900D92A436B107D9F720E0A4E6CE
:10005000B0E001C01D92A636B207E1F745D053C00B
:10006000CFCFB99A8F9AC19882E089BF8AE083BFC7
:1000700080E48CBF80E687B980B78F7180BF81EE46
:1000800086B9789408951F920F920FB60F9211249B
:100090002F933F938F939F9380916400909165007D
:1000A00001969093650080936400209160003091E8
:1000B0006100281739077CF41092650010926400E3
:1000C0009091620081E0892780936200882311F07B
:1000D000979801C0979A9F918F913F912F910F9080
:1000E0000FBE0F901F901895BCDF349BFECF84B1DC
:1000F00085B190E09595879595958795909361004A
:0A01000080936000F2CFF894FFCF67
:04010A008000010070
:00000001FF
